{
  "fileName": "counter.sol",
  "contractName": "Counter",
  "source": "// contracts/Counter.sol\n// SPDX-License-Identifier: MIT\npragma solidity ^0.6.0;\n\nimport \"@openzeppelin/contracts-ethereum-package/contracts/GSN/Context.sol\";\nimport \"@openzeppelin/contracts-ethereum-package/contracts/GSN/GSNRecipient.sol\";\n\ncontract Counter is ContextUpgradeSafe, GSNRecipientUpgradeSafe {\n    uint256 public value;\n\n    function initialize() public {\n        __GSNRecipient_init();\n    }\n\n    function increase() public {\n        value += 1;\n    }\n\n    function acceptRelayedCall(\n        address relay,\n        address from,\n        bytes calldata encodedFunction,\n        uint256 transactionFee,\n        uint256 gasPrice,\n        uint256 gasLimit,\n        uint256 nonce,\n        bytes calldata approvalData,\n        uint256 maxPossibleCharge\n    ) external override view returns (uint256, bytes memory) {\n        return _approveRelayedCall();\n    }\n\n    // We won't do any pre or post processing, so leave _preRelayedCall and _postRelayedCall empty\n    function _preRelayedCall(bytes memory context)\n        internal\n        override\n        returns (bytes32)\n    {}\n\n    function _postRelayedCall(\n        bytes memory context,\n        bool,\n        uint256 actualCharge,\n        bytes32\n    ) internal override {}\n\n    function _msgSender()\n        internal\n        override(ContextUpgradeSafe, GSNRecipientUpgradeSafe)\n        view\n        returns (address payable)\n    {\n        return GSNRecipientUpgradeSafe._msgSender();\n    }\n\n    function _msgData()\n        internal\n        override(ContextUpgradeSafe, GSNRecipientUpgradeSafe)\n        view\n        returns (bytes memory)\n    {\n        return GSNRecipientUpgradeSafe._msgData();\n    }\n}\n",
  "sourcePath": "contracts/counter.sol",
  "abi": [
    {
      "anonymous": false,
      "inputs": [
        {
          "indexed": true,
          "internalType": "address",
          "name": "oldRelayHub",
          "type": "address"
        },
        {
          "indexed": true,
          "internalType": "address",
          "name": "newRelayHub",
          "type": "address"
        }
      ],
      "name": "RelayHubChanged",
      "type": "event"
    },
    {
      "inputs": [
        {
          "internalType": "address",
          "name": "relay",
          "type": "address"
        },
        {
          "internalType": "address",
          "name": "from",
          "type": "address"
        },
        {
          "internalType": "bytes",
          "name": "encodedFunction",
          "type": "bytes"
        },
        {
          "internalType": "uint256",
          "name": "transactionFee",
          "type": "uint256"
        },
        {
          "internalType": "uint256",
          "name": "gasPrice",
          "type": "uint256"
        },
        {
          "internalType": "uint256",
          "name": "gasLimit",
          "type": "uint256"
        },
        {
          "internalType": "uint256",
          "name": "nonce",
          "type": "uint256"
        },
        {
          "internalType": "bytes",
          "name": "approvalData",
          "type": "bytes"
        },
        {
          "internalType": "uint256",
          "name": "maxPossibleCharge",
          "type": "uint256"
        }
      ],
      "name": "acceptRelayedCall",
      "outputs": [
        {
          "internalType": "uint256",
          "name": "",
          "type": "uint256"
        },
        {
          "internalType": "bytes",
          "name": "",
          "type": "bytes"
        }
      ],
      "stateMutability": "view",
      "type": "function"
    },
    {
      "inputs": [],
      "name": "getHubAddr",
      "outputs": [
        {
          "internalType": "address",
          "name": "",
          "type": "address"
        }
      ],
      "stateMutability": "view",
      "type": "function"
    },
    {
      "inputs": [],
      "name": "increase",
      "outputs": [],
      "stateMutability": "nonpayable",
      "type": "function"
    },
    {
      "inputs": [],
      "name": "initialize",
      "outputs": [],
      "stateMutability": "nonpayable",
      "type": "function"
    },
    {
      "inputs": [
        {
          "internalType": "bytes",
          "name": "context",
          "type": "bytes"
        },
        {
          "internalType": "bool",
          "name": "success",
          "type": "bool"
        },
        {
          "internalType": "uint256",
          "name": "actualCharge",
          "type": "uint256"
        },
        {
          "internalType": "bytes32",
          "name": "preRetVal",
          "type": "bytes32"
        }
      ],
      "name": "postRelayedCall",
      "outputs": [],
      "stateMutability": "nonpayable",
      "type": "function"
    },
    {
      "inputs": [
        {
          "internalType": "bytes",
          "name": "context",
          "type": "bytes"
        }
      ],
      "name": "preRelayedCall",
      "outputs": [
        {
          "internalType": "bytes32",
          "name": "",
          "type": "bytes32"
        }
      ],
      "stateMutability": "nonpayable",
      "type": "function"
    },
    {
      "inputs": [],
      "name": "relayHubVersion",
      "outputs": [
        {
          "internalType": "string",
          "name": "",
          "type": "string"
        }
      ],
      "stateMutability": "view",
      "type": "function"
    },
    {
      "inputs": [],
      "name": "value",
      "outputs": [
        {
          "internalType": "uint256",
          "name": "",
          "type": "uint256"
        }
      ],
      "stateMutability": "view",
      "type": "function"
    }
  ],
  "bytecode": "0x608060405234801561001057600080fd5b50610b04806100206000396000f3fe608060405234801561001057600080fd5b50600436106100885760003560e01c806383947ea01161005b57806383947ea0146101b8578063ad61ccd514610379578063e06e0e22146103fc578063e8927fbc146104d757610088565b80633fa4f2451461008d57806374e861d6146100ab57806380274db7146100df5780638129fc1c146101ae575b600080fd5b6100956104e1565b6040518082815260200191505060405180910390f35b6100b36104e7565b604051808273ffffffffffffffffffffffffffffffffffffffff16815260200191505060405180910390f35b610198600480360360208110156100f557600080fd5b810190808035906020019064010000000081111561011257600080fd5b82018360208201111561012457600080fd5b8035906020019184600183028401116401000000008311171561014657600080fd5b91908080601f016020809104026020016040519081016040528093929190818152602001838380828437600081840152601f19601f820116905080830192505050505050509192919290505050610511565b6040518082815260200191505060405180910390f35b6101b66105ae565b005b6102f760048036036101208110156101cf57600080fd5b81019080803573ffffffffffffffffffffffffffffffffffffffff169060200190929190803573ffffffffffffffffffffffffffffffffffffffff1690602001909291908035906020019064010000000081111561022c57600080fd5b82018360208201111561023e57600080fd5b8035906020019184600183028401116401000000008311171561026057600080fd5b909192939192939080359060200190929190803590602001909291908035906020019092919080359060200190929190803590602001906401000000008111156102a957600080fd5b8201836020820111156102bb57600080fd5b803590602001918460018302840111640100000000831117156102dd57600080fd5b9091929391929390803590602001909291905050506105b8565b6040518083815260200180602001828103825283818151815260200191508051906020019080838360005b8381101561033d578082015181840152602081019050610322565b50505050905090810190601f16801561036a5780820380516001836020036101000a031916815260200191505b50935050505060405180910390f35b6103816105d8565b6040518080602001828103825283818151815260200191508051906020019080838360005b838110156103c15780820151818401526020810190506103a6565b50505050905090810190601f1680156103ee5780820380516001836020036101000a031916815260200191505b509250505060405180910390f35b6104d56004803603608081101561041257600080fd5b810190808035906020019064010000000081111561042f57600080fd5b82018360208201111561044157600080fd5b8035906020019184600183028401116401000000008311171561046357600080fd5b91908080601f016020809104026020016040519081016040528093929190818152602001838380828437600081840152601f19601f8201169050808301925050505050505091929192908035151590602001909291908035906020019092919080359060200190929190505050610615565b005b6104df6106b2565b005b60975481565b6000606560009054906101000a900473ffffffffffffffffffffffffffffffffffffffff16905090565b600061051b6104e7565b73ffffffffffffffffffffffffffffffffffffffff163373ffffffffffffffffffffffffffffffffffffffff161461059e576040517f08c379a0000000000000000000000000000000000000000000000000000000008152600401808060200182810382526024815260200180610aab6024913960400191505060405180910390fd5b6105a7826106c5565b9050919050565b6105b66106cc565b565b600060606105c46107da565b915091509b509b9950505050505050505050565b60606040518060400160405280600581526020017f312e302e30000000000000000000000000000000000000000000000000000000815250905090565b61061d6104e7565b73ffffffffffffffffffffffffffffffffffffffff163373ffffffffffffffffffffffffffffffffffffffff16146106a0576040517f08c379a0000000000000000000000000000000000000000000000000000000008152600401808060200182810382526024815260200180610aab6024913960400191505060405180910390fd5b6106ac848484846107fe565b50505050565b6001609760008282540192505081905550565b6000919050565b600060019054906101000a900460ff16806106eb57506106ea610804565b5b80610701575060008054906101000a900460ff16155b610756576040517f08c379a000000000000000000000000000000000000000000000000000000000815260040180806020018281038252602e815260200180610a7d602e913960400191505060405180910390fd5b60008060019054906101000a900460ff1615905080156107a6576001600060016101000a81548160ff02191690831515021790555060016000806101000a81548160ff0219169083151502179055505b6107ae61081b565b6107b6610919565b80156107d75760008060016101000a81548160ff0219169083151502179055505b50565b600060606107f660405180602001604052806000815250610a6c565b915091509091565b50505050565b6000803090506000813b9050600081149250505090565b600060019054906101000a900460ff168061083a5750610839610804565b5b80610850575060008054906101000a900460ff16155b6108a5576040517f08c379a000000000000000000000000000000000000000000000000000000000815260040180806020018281038252602e815260200180610a7d602e913960400191505060405180910390fd5b60008060019054906101000a900460ff1615905080156108f5576001600060016101000a81548160ff02191690831515021790555060016000806101000a81548160ff0219169083151502179055505b80156109165760008060016101000a81548160ff0219169083151502179055505b50565b600060019054906101000a900460ff16806109385750610937610804565b5b8061094e575060008054906101000a900460ff16155b6109a3576040517f08c379a000000000000000000000000000000000000000000000000000000000815260040180806020018281038252602e815260200180610a7d602e913960400191505060405180910390fd5b60008060019054906101000a900460ff1615905080156109f3576001600060016101000a81548160ff02191690831515021790555060016000806101000a81548160ff0219169083151502179055505b73d216153c06e857cd7f72665e0af1d7d82172f494606560006101000a81548173ffffffffffffffffffffffffffffffffffffffff021916908373ffffffffffffffffffffffffffffffffffffffff1602179055508015610a695760008060016101000a81548160ff0219169083151502179055505b50565b600060606000839150915091509156fe436f6e747261637420696e7374616e63652068617320616c7265616479206265656e20696e697469616c697a656447534e526563697069656e743a2063616c6c6572206973206e6f742052656c6179487562a2646970667358221220a11c9b84db8b6fbb6b209d4b80ffdf0385a65858e73fae155975d4deac28e2c464736f6c634300060c0033",
  "compiler": {
    "name": "solc",
    "version": "0.6.12+commit.27d51765.Emscripten.clang",
    "optimizer": {
      "enabled": false,
      "runs": 200
    },
    "evmVersion": "petersburg"
  }
}